{
  "_format": "hh-sol-artifact-1",
  "contractName": "NFTCollection",
  "sourceName": "contracts/NFTCollection.sol",
  "abi": [
    {
      "inputs": [],
      "stateMutability": "nonpayable",
      "type": "constructor"
    },
    {
      "anonymous": false,
      "inputs": [
        {
          "indexed": true,
          "internalType": "address",
          "name": "owner",
          "type": "address"
        },
        {
          "indexed": true,
          "internalType": "address",
          "name": "approved",
          "type": "address"
        },
        {
          "indexed": true,
          "internalType": "uint256",
          "name": "tokenId",
          "type": "uint256"
        }
      ],
      "name": "Approval",
      "type": "event"
    },
    {
      "anonymous": false,
      "inputs": [
        {
          "indexed": true,
          "internalType": "address",
          "name": "owner",
          "type": "address"
        },
        {
          "indexed": true,
          "internalType": "address",
          "name": "operator",
          "type": "address"
        },
        {
          "indexed": false,
          "internalType": "bool",
          "name": "approved",
          "type": "bool"
        }
      ],
      "name": "ApprovalForAll",
      "type": "event"
    },
    {
      "anonymous": false,
      "inputs": [
        {
          "indexed": false,
          "internalType": "uint256",
          "name": "index",
          "type": "uint256"
        },
        {
          "indexed": true,
          "internalType": "address",
          "name": "mintedBy",
          "type": "address"
        }
      ],
      "name": "Mint",
      "type": "event"
    },
    {
      "anonymous": false,
      "inputs": [
        {
          "indexed": true,
          "internalType": "address",
          "name": "from",
          "type": "address"
        },
        {
          "indexed": true,
          "internalType": "address",
          "name": "to",
          "type": "address"
        },
        {
          "indexed": true,
          "internalType": "uint256",
          "name": "tokenId",
          "type": "uint256"
        }
      ],
      "name": "Transfer",
      "type": "event"
    },
    {
      "inputs": [
        {
          "internalType": "address",
          "name": "to",
          "type": "address"
        },
        {
          "internalType": "uint256",
          "name": "tokenId",
          "type": "uint256"
        }
      ],
      "name": "approve",
      "outputs": [],
      "stateMutability": "nonpayable",
      "type": "function"
    },
    {
      "inputs": [
        {
          "internalType": "address",
          "name": "owner",
          "type": "address"
        }
      ],
      "name": "balanceOf",
      "outputs": [
        {
          "internalType": "uint256",
          "name": "",
          "type": "uint256"
        }
      ],
      "stateMutability": "view",
      "type": "function"
    },
    {
      "inputs": [
        {
          "internalType": "uint256",
          "name": "tokenId",
          "type": "uint256"
        }
      ],
      "name": "getApproved",
      "outputs": [
        {
          "internalType": "address",
          "name": "",
          "type": "address"
        }
      ],
      "stateMutability": "view",
      "type": "function"
    },
    {
      "inputs": [
        {
          "internalType": "address",
          "name": "owner",
          "type": "address"
        },
        {
          "internalType": "address",
          "name": "operator",
          "type": "address"
        }
      ],
      "name": "isApprovedForAll",
      "outputs": [
        {
          "internalType": "bool",
          "name": "",
          "type": "bool"
        }
      ],
      "stateMutability": "view",
      "type": "function"
    },
    {
      "inputs": [
        {
          "internalType": "string",
          "name": "_nftName",
          "type": "string"
        },
        {
          "internalType": "string",
          "name": "_nftURI",
          "type": "string"
        }
      ],
      "name": "mintNFT",
      "outputs": [
        {
          "internalType": "uint256",
          "name": "",
          "type": "uint256"
        }
      ],
      "stateMutability": "nonpayable",
      "type": "function"
    },
    {
      "inputs": [],
      "name": "name",
      "outputs": [
        {
          "internalType": "string",
          "name": "",
          "type": "string"
        }
      ],
      "stateMutability": "view",
      "type": "function"
    },
    {
      "inputs": [
        {
          "internalType": "uint256",
          "name": "tokenId",
          "type": "uint256"
        }
      ],
      "name": "ownerOf",
      "outputs": [
        {
          "internalType": "address",
          "name": "",
          "type": "address"
        }
      ],
      "stateMutability": "view",
      "type": "function"
    },
    {
      "inputs": [
        {
          "internalType": "address",
          "name": "from",
          "type": "address"
        },
        {
          "internalType": "address",
          "name": "to",
          "type": "address"
        },
        {
          "internalType": "uint256",
          "name": "tokenId",
          "type": "uint256"
        }
      ],
      "name": "safeTransferFrom",
      "outputs": [],
      "stateMutability": "nonpayable",
      "type": "function"
    },
    {
      "inputs": [
        {
          "internalType": "address",
          "name": "from",
          "type": "address"
        },
        {
          "internalType": "address",
          "name": "to",
          "type": "address"
        },
        {
          "internalType": "uint256",
          "name": "tokenId",
          "type": "uint256"
        },
        {
          "internalType": "bytes",
          "name": "_data",
          "type": "bytes"
        }
      ],
      "name": "safeTransferFrom",
      "outputs": [],
      "stateMutability": "nonpayable",
      "type": "function"
    },
    {
      "inputs": [
        {
          "internalType": "address",
          "name": "operator",
          "type": "address"
        },
        {
          "internalType": "bool",
          "name": "approved",
          "type": "bool"
        }
      ],
      "name": "setApprovalForAll",
      "outputs": [],
      "stateMutability": "nonpayable",
      "type": "function"
    },
    {
      "inputs": [
        {
          "internalType": "bytes4",
          "name": "interfaceId",
          "type": "bytes4"
        }
      ],
      "name": "supportsInterface",
      "outputs": [
        {
          "internalType": "bool",
          "name": "",
          "type": "bool"
        }
      ],
      "stateMutability": "view",
      "type": "function"
    },
    {
      "inputs": [],
      "name": "symbol",
      "outputs": [
        {
          "internalType": "string",
          "name": "",
          "type": "string"
        }
      ],
      "stateMutability": "view",
      "type": "function"
    },
    {
      "inputs": [
        {
          "internalType": "uint256",
          "name": "tokenId",
          "type": "uint256"
        }
      ],
      "name": "tokenURI",
      "outputs": [
        {
          "internalType": "string",
          "name": "",
          "type": "string"
        }
      ],
      "stateMutability": "view",
      "type": "function"
    },
    {
      "inputs": [
        {
          "internalType": "address",
          "name": "from",
          "type": "address"
        },
        {
          "internalType": "address",
          "name": "to",
          "type": "address"
        },
        {
          "internalType": "uint256",
          "name": "tokenId",
          "type": "uint256"
        }
      ],
      "name": "transferFrom",
      "outputs": [],
      "stateMutability": "nonpayable",
      "type": "function"
    }
  ],
  "bytecode": "0x60806040523480156200001157600080fd5b506040518060400160405280600e81526020017f4e465420436f6c6c656374696f6e0000000000000000000000000000000000008152506040518060400160405280600481526020017f4e46544300000000000000000000000000000000000000000000000000000000815250816000908051906020019062000096929190620000b8565b508060019080519060200190620000af929190620000b8565b505050620001cd565b828054620000c69062000168565b90600052602060002090601f016020900481019282620000ea576000855562000136565b82601f106200010557805160ff191683800117855562000136565b8280016001018555821562000136579182015b828111156200013557825182559160200191906001019062000118565b5b50905062000145919062000149565b5090565b5b80821115620001645760008160009055506001016200014a565b5090565b600060028204905060018216806200018157607f821691505b602082108114156200019857620001976200019e565b5b50919050565b7f4e487b7100000000000000000000000000000000000000000000000000000000600052602260045260246000fd5b6128d280620001dd6000396000f3fe608060405234801561001057600080fd5b50600436106100ea5760003560e01c806370a082311161008c578063b88d4fde11610066578063b88d4fde1461025b578063c87b56dd14610277578063e9605544146102a7578063e985e9c5146102d7576100ea565b806370a08231146101f157806395d89b4114610221578063a22cb4651461023f576100ea565b8063095ea7b3116100c8578063095ea7b31461016d57806323b872dd1461018957806342842e0e146101a55780636352211e146101c1576100ea565b806301ffc9a7146100ef57806306fdde031461011f578063081812fc1461013d575b600080fd5b61010960048036038101906101049190611b06565b610307565b604051610116919061226a565b60405180910390f35b6101276103e9565b6040516101349190612285565b60405180910390f35b61015760048036038101906101529190611bc4565b61047b565b6040516101649190612203565b60405180910390f35b61018760048036038101906101829190611aca565b610500565b005b6101a3600480360381019061019e91906119c4565b610618565b005b6101bf60048036038101906101ba91906119c4565b610678565b005b6101db60048036038101906101d69190611bc4565b610698565b6040516101e89190612203565b60405180910390f35b61020b6004803603810190610206919061195f565b61074a565b6040516102189190612467565b60405180910390f35b610229610802565b6040516102369190612285565b60405180910390f35b61025960048036038101906102549190611a8e565b610894565b005b61027560048036038101906102709190611a13565b610a15565b005b610291600480360381019061028c9190611bc4565b610a77565b60405161029e9190612285565b60405180910390f35b6102c160048036038101906102bc9190611b58565b610b1e565b6040516102ce9190612467565b60405180910390f35b6102f160048036038101906102ec9190611988565b610c08565b6040516102fe919061226a565b60405180910390f35b60007f80ac58cd000000000000000000000000000000000000000000000000000000007bffffffffffffffffffffffffffffffffffffffffffffffffffffffff1916827bffffffffffffffffffffffffffffffffffffffffffffffffffffffff191614806103d257507f5b5e139f000000000000000000000000000000000000000000000000000000007bffffffffffffffffffffffffffffffffffffffffffffffffffffffff1916827bffffffffffffffffffffffffffffffffffffffffffffffffffffffff1916145b806103e257506103e182610c9c565b5b9050919050565b6060600080546103f8906126c7565b80601f0160208091040260200160405190810160405280929190818152602001828054610424906126c7565b80156104715780601f1061044657610100808354040283529160200191610471565b820191906000526020600020905b81548152906001019060200180831161045457829003601f168201915b5050505050905090565b600061048682610d06565b6104c5576040517f08c379a00000000000000000000000000000000000000000000000000000000081526004016104bc906123c7565b60405180910390fd5b6004600083815260200190815260200160002060009054906101000a900473ffffffffffffffffffffffffffffffffffffffff169050919050565b600061050b82610698565b90508073ffffffffffffffffffffffffffffffffffffffff168373ffffffffffffffffffffffffffffffffffffffff16141561057c576040517f08c379a000000000000000000000000000000000000000000000000000000000815260040161057390612427565b60405180910390fd5b8073ffffffffffffffffffffffffffffffffffffffff1661059b610d72565b73ffffffffffffffffffffffffffffffffffffffff1614806105ca57506105c9816105c4610d72565b610c08565b5b610609576040517f08c379a000000000000000000000000000000000000000000000000000000000815260040161060090612347565b60405180910390fd5b6106138383610d7a565b505050565b610629610623610d72565b82610e33565b610668576040517f08c379a000000000000000000000000000000000000000000000000000000000815260040161065f90612447565b60405180910390fd5b610673838383610f11565b505050565b61069383838360405180602001604052806000815250610a15565b505050565b6000806002600084815260200190815260200160002060009054906101000a900473ffffffffffffffffffffffffffffffffffffffff169050600073ffffffffffffffffffffffffffffffffffffffff168173ffffffffffffffffffffffffffffffffffffffff161415610741576040517f08c379a000000000000000000000000000000000000000000000000000000000815260040161073890612387565b60405180910390fd5b80915050919050565b60008073ffffffffffffffffffffffffffffffffffffffff168273ffffffffffffffffffffffffffffffffffffffff1614156107bb576040517f08c379a00000000000000000000000000000000000000000000000000000000081526004016107b290612367565b60405180910390fd5b600360008373ffffffffffffffffffffffffffffffffffffffff1673ffffffffffffffffffffffffffffffffffffffff168152602001908152602001600020549050919050565b606060018054610811906126c7565b80601f016020809104026020016040519081016040528092919081815260200182805461083d906126c7565b801561088a5780601f1061085f5761010080835404028352916020019161088a565b820191906000526020600020905b81548152906001019060200180831161086d57829003601f168201915b5050505050905090565b61089c610d72565b73ffffffffffffffffffffffffffffffffffffffff168273ffffffffffffffffffffffffffffffffffffffff16141561090a576040517f08c379a000000000000000000000000000000000000000000000000000000000815260040161090190612307565b60405180910390fd5b8060056000610917610d72565b73ffffffffffffffffffffffffffffffffffffffff1673ffffffffffffffffffffffffffffffffffffffff16815260200190815260200160002060008473ffffffffffffffffffffffffffffffffffffffff1673ffffffffffffffffffffffffffffffffffffffff16815260200190815260200160002060006101000a81548160ff0219169083151502179055508173ffffffffffffffffffffffffffffffffffffffff166109c4610d72565b73ffffffffffffffffffffffffffffffffffffffff167f17307eab39ab6107e8899845ad3d59bd9653f200f220920489ca2b5937696c3183604051610a09919061226a565b60405180910390a35050565b610a26610a20610d72565b83610e33565b610a65576040517f08c379a0000000000000000000000000000000000000000000000000000000008152600401610a5c90612447565b60405180910390fd5b610a718484848461116d565b50505050565b6060610a8282610d06565b610ac1576040517f08c379a0000000000000000000000000000000000000000000000000000000008152600401610ab890612407565b60405180910390fd5b6000610acb6111c9565b90506000815111610aeb5760405180602001604052806000815250610b16565b80610af5846111e0565b604051602001610b069291906121df565b6040516020818303038152906040525b915050919050565b6000600660405180604001604052808581526020018481525090806001815401808255809150506001900390600052602060002090600202016000909190919091506000820151816000019080519060200190610b7c929190611783565b506020820151816001019080519060200190610b99929190611783565b50505060006006805490509050610bb0338261138d565b3373ffffffffffffffffffffffffffffffffffffffff167ff3cea5493d790af0133817606f7350a91d7f154ea52eaa79d179d4d231e5010282604051610bf69190612467565b60405180910390a28091505092915050565b6000600560008473ffffffffffffffffffffffffffffffffffffffff1673ffffffffffffffffffffffffffffffffffffffff16815260200190815260200160002060008373ffffffffffffffffffffffffffffffffffffffff1673ffffffffffffffffffffffffffffffffffffffff16815260200190815260200160002060009054906101000a900460ff16905092915050565b60007f01ffc9a7000000000000000000000000000000000000000000000000000000007bffffffffffffffffffffffffffffffffffffffffffffffffffffffff1916827bffffffffffffffffffffffffffffffffffffffffffffffffffffffff1916149050919050565b60008073ffffffffffffffffffffffffffffffffffffffff166002600084815260200190815260200160002060009054906101000a900473ffffffffffffffffffffffffffffffffffffffff1673ffffffffffffffffffffffffffffffffffffffff1614159050919050565b600033905090565b816004600083815260200190815260200160002060006101000a81548173ffffffffffffffffffffffffffffffffffffffff021916908373ffffffffffffffffffffffffffffffffffffffff160217905550808273ffffffffffffffffffffffffffffffffffffffff16610ded83610698565b73ffffffffffffffffffffffffffffffffffffffff167f8c5be1e5ebec7d5bd14f71427d1e84f3dd0314c0f7b2291e5b200ac8c7c3b92560405160405180910390a45050565b6000610e3e82610d06565b610e7d576040517f08c379a0000000000000000000000000000000000000000000000000000000008152600401610e7490612327565b60405180910390fd5b6000610e8883610698565b90508073ffffffffffffffffffffffffffffffffffffffff168473ffffffffffffffffffffffffffffffffffffffff161480610ef757508373ffffffffffffffffffffffffffffffffffffffff16610edf8461047b565b73ffffffffffffffffffffffffffffffffffffffff16145b80610f085750610f078185610c08565b5b91505092915050565b8273ffffffffffffffffffffffffffffffffffffffff16610f3182610698565b73ffffffffffffffffffffffffffffffffffffffff1614610f87576040517f08c379a0000000000000000000000000000000000000000000000000000000008152600401610f7e906123e7565b60405180910390fd5b600073ffffffffffffffffffffffffffffffffffffffff168273ffffffffffffffffffffffffffffffffffffffff161415610ff7576040517f08c379a0000000000000000000000000000000000000000000000000000000008152600401610fee906122e7565b60405180910390fd5b6110028383836113ab565b61100d600082610d7a565b6001600360008573ffffffffffffffffffffffffffffffffffffffff1673ffffffffffffffffffffffffffffffffffffffff168152602001908152602001600020600082825461105d91906125dd565b925050819055506001600360008473ffffffffffffffffffffffffffffffffffffffff1673ffffffffffffffffffffffffffffffffffffffff16815260200190815260200160002060008282546110b49190612556565b92505081905550816002600083815260200190815260200160002060006101000a81548173ffffffffffffffffffffffffffffffffffffffff021916908373ffffffffffffffffffffffffffffffffffffffff160217905550808273ffffffffffffffffffffffffffffffffffffffff168473ffffffffffffffffffffffffffffffffffffffff167fddf252ad1be2c89b69c2b068fc378daa952ba7f163c4a11628f55a4df523b3ef60405160405180910390a4505050565b611178848484610f11565b611184848484846113b0565b6111c3576040517f08c379a00000000000000000000000000000000000000000000000000000000081526004016111ba906122a7565b60405180910390fd5b50505050565b606060405180602001604052806000815250905090565b60606000821415611228576040518060400160405280600181526020017f30000000000000000000000000000000000000000000000000000000000000008152509050611388565b600082905060005b6000821461125a578080611243906126f9565b915050600a8261125391906125ac565b9150611230565b60008167ffffffffffffffff81111561129c577f4e487b7100000000000000000000000000000000000000000000000000000000600052604160045260246000fd5b6040519080825280601f01601f1916602001820160405280156112ce5781602001600182028036833780820191505090505b5090505b60008514611381576001826112e791906125dd565b9150600a856112f69190612742565b60306113029190612556565b60f81b81838151811061133e577f4e487b7100000000000000000000000000000000000000000000000000000000600052603260045260246000fd5b60200101907effffffffffffffffffffffffffffffffffffffffffffffffffffffffffffff1916908160001a905350600a8561137a91906125ac565b94506112d2565b8093505050505b919050565b6113a7828260405180602001604052806000815250611547565b5050565b505050565b60006113d18473ffffffffffffffffffffffffffffffffffffffff166115a2565b1561153a578373ffffffffffffffffffffffffffffffffffffffff1663150b7a026113fa610d72565b8786866040518563ffffffff1660e01b815260040161141c949392919061221e565b602060405180830381600087803b15801561143657600080fd5b505af192505050801561146757506040513d601f19601f820116820180604052508101906114649190611b2f565b60015b6114ea573d8060008114611497576040519150601f19603f3d011682016040523d82523d6000602084013e61149c565b606091505b506000815114156114e2576040517f08c379a00000000000000000000000000000000000000000000000000000000081526004016114d9906122a7565b60405180910390fd5b805181602001fd5b63150b7a0260e01b7bffffffffffffffffffffffffffffffffffffffffffffffffffffffff1916817bffffffffffffffffffffffffffffffffffffffffffffffffffffffff19161491505061153f565b600190505b949350505050565b61155183836115b5565b61155e60008484846113b0565b61159d576040517f08c379a0000000000000000000000000000000000000000000000000000000008152600401611594906122a7565b60405180910390fd5b505050565b600080823b905060008111915050919050565b600073ffffffffffffffffffffffffffffffffffffffff168273ffffffffffffffffffffffffffffffffffffffff161415611625576040517f08c379a000000000000000000000000000000000000000000000000000000000815260040161161c906123a7565b60405180910390fd5b61162e81610d06565b1561166e576040517f08c379a0000000000000000000000000000000000000000000000000000000008152600401611665906122c7565b60405180910390fd5b61167a600083836113ab565b6001600360008473ffffffffffffffffffffffffffffffffffffffff1673ffffffffffffffffffffffffffffffffffffffff16815260200190815260200160002060008282546116ca9190612556565b92505081905550816002600083815260200190815260200160002060006101000a81548173ffffffffffffffffffffffffffffffffffffffff021916908373ffffffffffffffffffffffffffffffffffffffff160217905550808273ffffffffffffffffffffffffffffffffffffffff16600073ffffffffffffffffffffffffffffffffffffffff167fddf252ad1be2c89b69c2b068fc378daa952ba7f163c4a11628f55a4df523b3ef60405160405180910390a45050565b82805461178f906126c7565b90600052602060002090601f0160209004810192826117b157600085556117f8565b82601f106117ca57805160ff19168380011785556117f8565b828001600101855582156117f8579182015b828111156117f75782518255916020019190600101906117dc565b5b5090506118059190611809565b5090565b5b8082111561182257600081600090555060010161180a565b5090565b6000611839611834846124b3565b612482565b90508281526020810184848401111561185157600080fd5b61185c848285612685565b509392505050565b6000611877611872846124e3565b612482565b90508281526020810184848401111561188f57600080fd5b61189a848285612685565b509392505050565b6000813590506118b181612840565b92915050565b6000813590506118c681612857565b92915050565b6000813590506118db8161286e565b92915050565b6000815190506118f08161286e565b92915050565b600082601f83011261190757600080fd5b8135611917848260208601611826565b91505092915050565b600082601f83011261193157600080fd5b8135611941848260208601611864565b91505092915050565b60008135905061195981612885565b92915050565b60006020828403121561197157600080fd5b600061197f848285016118a2565b91505092915050565b6000806040838503121561199b57600080fd5b60006119a9858286016118a2565b92505060206119ba858286016118a2565b9150509250929050565b6000806000606084860312156119d957600080fd5b60006119e7868287016118a2565b93505060206119f8868287016118a2565b9250506040611a098682870161194a565b9150509250925092565b60008060008060808587031215611a2957600080fd5b6000611a37878288016118a2565b9450506020611a48878288016118a2565b9350506040611a598782880161194a565b925050606085013567ffffffffffffffff811115611a7657600080fd5b611a82878288016118f6565b91505092959194509250565b60008060408385031215611aa157600080fd5b6000611aaf858286016118a2565b9250506020611ac0858286016118b7565b9150509250929050565b60008060408385031215611add57600080fd5b6000611aeb858286016118a2565b9250506020611afc8582860161194a565b9150509250929050565b600060208284031215611b1857600080fd5b6000611b26848285016118cc565b91505092915050565b600060208284031215611b4157600080fd5b6000611b4f848285016118e1565b91505092915050565b60008060408385031215611b6b57600080fd5b600083013567ffffffffffffffff811115611b8557600080fd5b611b9185828601611920565b925050602083013567ffffffffffffffff811115611bae57600080fd5b611bba85828601611920565b9150509250929050565b600060208284031215611bd657600080fd5b6000611be48482850161194a565b91505092915050565b611bf681612611565b82525050565b611c0581612623565b82525050565b6000611c1682612513565b611c208185612529565b9350611c30818560208601612694565b611c398161282f565b840191505092915050565b6000611c4f8261251e565b611c59818561253a565b9350611c69818560208601612694565b611c728161282f565b840191505092915050565b6000611c888261251e565b611c92818561254b565b9350611ca2818560208601612694565b80840191505092915050565b6000611cbb60328361253a565b91507f4552433732313a207472616e7366657220746f206e6f6e20455243373231526560008301527f63656976657220696d706c656d656e74657200000000000000000000000000006020830152604082019050919050565b6000611d21601c8361253a565b91507f4552433732313a20746f6b656e20616c7265616479206d696e746564000000006000830152602082019050919050565b6000611d6160248361253a565b91507f4552433732313a207472616e7366657220746f20746865207a65726f2061646460008301527f72657373000000000000000000000000000000000000000000000000000000006020830152604082019050919050565b6000611dc760198361253a565b91507f4552433732313a20617070726f766520746f2063616c6c6572000000000000006000830152602082019050919050565b6000611e07602c8361253a565b91507f4552433732313a206f70657261746f7220717565727920666f72206e6f6e657860008301527f697374656e7420746f6b656e00000000000000000000000000000000000000006020830152604082019050919050565b6000611e6d60388361253a565b91507f4552433732313a20617070726f76652063616c6c6572206973206e6f74206f7760008301527f6e6572206e6f7220617070726f76656420666f7220616c6c00000000000000006020830152604082019050919050565b6000611ed3602a8361253a565b91507f4552433732313a2062616c616e636520717565727920666f7220746865207a6560008301527f726f2061646472657373000000000000000000000000000000000000000000006020830152604082019050919050565b6000611f3960298361253a565b91507f4552433732313a206f776e657220717565727920666f72206e6f6e657869737460008301527f656e7420746f6b656e00000000000000000000000000000000000000000000006020830152604082019050919050565b6000611f9f60208361253a565b91507f4552433732313a206d696e7420746f20746865207a65726f20616464726573736000830152602082019050919050565b6000611fdf602c8361253a565b91507f4552433732313a20617070726f76656420717565727920666f72206e6f6e657860008301527f697374656e7420746f6b656e00000000000000000000000000000000000000006020830152604082019050919050565b600061204560298361253a565b91507f4552433732313a207472616e73666572206f6620746f6b656e2074686174206960008301527f73206e6f74206f776e00000000000000000000000000000000000000000000006020830152604082019050919050565b60006120ab602f8361253a565b91507f4552433732314d657461646174613a2055524920717565727920666f72206e6f60008301527f6e6578697374656e7420746f6b656e00000000000000000000000000000000006020830152604082019050919050565b600061211160218361253a565b91507f4552433732313a20617070726f76616c20746f2063757272656e74206f776e6560008301527f72000000000000000000000000000000000000000000000000000000000000006020830152604082019050919050565b600061217760318361253a565b91507f4552433732313a207472616e736665722063616c6c6572206973206e6f74206f60008301527f776e6572206e6f7220617070726f7665640000000000000000000000000000006020830152604082019050919050565b6121d98161267b565b82525050565b60006121eb8285611c7d565b91506121f78284611c7d565b91508190509392505050565b60006020820190506122186000830184611bed565b92915050565b60006080820190506122336000830187611bed565b6122406020830186611bed565b61224d60408301856121d0565b818103606083015261225f8184611c0b565b905095945050505050565b600060208201905061227f6000830184611bfc565b92915050565b6000602082019050818103600083015261229f8184611c44565b905092915050565b600060208201905081810360008301526122c081611cae565b9050919050565b600060208201905081810360008301526122e081611d14565b9050919050565b6000602082019050818103600083015261230081611d54565b9050919050565b6000602082019050818103600083015261232081611dba565b9050919050565b6000602082019050818103600083015261234081611dfa565b9050919050565b6000602082019050818103600083015261236081611e60565b9050919050565b6000602082019050818103600083015261238081611ec6565b9050919050565b600060208201905081810360008301526123a081611f2c565b9050919050565b600060208201905081810360008301526123c081611f92565b9050919050565b600060208201905081810360008301526123e081611fd2565b9050919050565b6000602082019050818103600083015261240081612038565b9050919050565b600060208201905081810360008301526124208161209e565b9050919050565b6000602082019050818103600083015261244081612104565b9050919050565b600060208201905081810360008301526124608161216a565b9050919050565b600060208201905061247c60008301846121d0565b92915050565b6000604051905081810181811067ffffffffffffffff821117156124a9576124a8612800565b5b8060405250919050565b600067ffffffffffffffff8211156124ce576124cd612800565b5b601f19601f8301169050602081019050919050565b600067ffffffffffffffff8211156124fe576124fd612800565b5b601f19601f8301169050602081019050919050565b600081519050919050565b600081519050919050565b600082825260208201905092915050565b600082825260208201905092915050565b600081905092915050565b60006125618261267b565b915061256c8361267b565b9250827fffffffffffffffffffffffffffffffffffffffffffffffffffffffffffffffff038211156125a1576125a0612773565b5b828201905092915050565b60006125b78261267b565b91506125c28361267b565b9250826125d2576125d16127a2565b5b828204905092915050565b60006125e88261267b565b91506125f38361267b565b92508282101561260657612605612773565b5b828203905092915050565b600061261c8261265b565b9050919050565b60008115159050919050565b60007fffffffff0000000000000000000000000000000000000000000000000000000082169050919050565b600073ffffffffffffffffffffffffffffffffffffffff82169050919050565b6000819050919050565b82818337600083830152505050565b60005b838110156126b2578082015181840152602081019050612697565b838111156126c1576000848401525b50505050565b600060028204905060018216806126df57607f821691505b602082108114156126f3576126f26127d1565b5b50919050565b60006127048261267b565b91507fffffffffffffffffffffffffffffffffffffffffffffffffffffffffffffffff82141561273757612736612773565b5b600182019050919050565b600061274d8261267b565b91506127588361267b565b925082612768576127676127a2565b5b828206905092915050565b7f4e487b7100000000000000000000000000000000000000000000000000000000600052601160045260246000fd5b7f4e487b7100000000000000000000000000000000000000000000000000000000600052601260045260246000fd5b7f4e487b7100000000000000000000000000000000000000000000000000000000600052602260045260246000fd5b7f4e487b7100000000000000000000000000000000000000000000000000000000600052604160045260246000fd5b6000601f19601f8301169050919050565b61284981612611565b811461285457600080fd5b50565b61286081612623565b811461286b57600080fd5b50565b6128778161262f565b811461288257600080fd5b50565b61288e8161267b565b811461289957600080fd5b5056fea2646970667358221220d2120660c1170cf2d1ce1f79977f0be39b6bb4c230a6b6055ebad4c35cd7459164736f6c63430008000033",
  "linkReferences": {},
  "deployedLinkReferences": {}
}