{
  "_format": "hh-sol-artifact-1",
  "contractName": "Marketplace",
  "sourceName": "contracts/Marketplace.sol",
  "abi": [
    {
      "inputs": [
        {
          "internalType": "string",
          "name": "_name",
          "type": "string"
        }
      ],
      "stateMutability": "nonpayable",
      "type": "constructor"
    },
    {
      "anonymous": false,
      "inputs": [
        {
          "indexed": false,
          "internalType": "uint256",
          "name": "auctionSequence",
          "type": "uint256"
        },
        {
          "indexed": false,
          "internalType": "address",
          "name": "addressNFTCollection",
          "type": "address"
        },
        {
          "indexed": false,
          "internalType": "address",
          "name": "addressPaymentToken",
          "type": "address"
        },
        {
          "indexed": false,
          "internalType": "uint256",
          "name": "nftId",
          "type": "uint256"
        },
        {
          "indexed": false,
          "internalType": "address",
          "name": "mintedBy",
          "type": "address"
        },
        {
          "indexed": false,
          "internalType": "address",
          "name": "currentBidOwner",
          "type": "address"
        },
        {
          "indexed": false,
          "internalType": "uint256",
          "name": "currentbidPrice",
          "type": "uint256"
        },
        {
          "indexed": false,
          "internalType": "uint256",
          "name": "endAuction",
          "type": "uint256"
        },
        {
          "indexed": false,
          "internalType": "uint256",
          "name": "bidCount",
          "type": "uint256"
        }
      ],
      "name": "NewAuction",
      "type": "event"
    },
    {
      "inputs": [],
      "name": "auctionSequence",
      "outputs": [
        {
          "internalType": "uint256",
          "name": "",
          "type": "uint256"
        }
      ],
      "stateMutability": "view",
      "type": "function"
    },
    {
      "inputs": [
        {
          "internalType": "address",
          "name": "_addressNFTCollection",
          "type": "address"
        },
        {
          "internalType": "address",
          "name": "_addressPaymentToken",
          "type": "address"
        },
        {
          "internalType": "uint256",
          "name": "_nftId",
          "type": "uint256"
        },
        {
          "internalType": "uint256",
          "name": "_initialBid",
          "type": "uint256"
        },
        {
          "internalType": "uint256",
          "name": "_endAuction",
          "type": "uint256"
        }
      ],
      "name": "createAuction",
      "outputs": [
        {
          "internalType": "uint256",
          "name": "",
          "type": "uint256"
        }
      ],
      "stateMutability": "nonpayable",
      "type": "function"
    },
    {
      "inputs": [
        {
          "internalType": "uint256",
          "name": "",
          "type": "uint256"
        }
      ],
      "name": "listedNFTs",
      "outputs": [
        {
          "internalType": "uint256",
          "name": "auctionSequence",
          "type": "uint256"
        },
        {
          "internalType": "address",
          "name": "addressNFTCollection",
          "type": "address"
        },
        {
          "internalType": "address",
          "name": "addressPaymentToken",
          "type": "address"
        },
        {
          "internalType": "uint256",
          "name": "nftId",
          "type": "uint256"
        },
        {
          "internalType": "address",
          "name": "auctionCreator",
          "type": "address"
        },
        {
          "internalType": "address payable",
          "name": "currentBidOwner",
          "type": "address"
        },
        {
          "internalType": "uint256",
          "name": "currentbidPrice",
          "type": "uint256"
        },
        {
          "internalType": "uint256",
          "name": "endAuction",
          "type": "uint256"
        },
        {
          "internalType": "uint256",
          "name": "bidCount",
          "type": "uint256"
        }
      ],
      "stateMutability": "view",
      "type": "function"
    },
    {
      "inputs": [],
      "name": "name",
      "outputs": [
        {
          "internalType": "string",
          "name": "",
          "type": "string"
        }
      ],
      "stateMutability": "view",
      "type": "function"
    }
  ],
  "bytecode": "0x608060405260006001553480156200001657600080fd5b506040516200145a3803806200145a83398181016040528101906200003c91906200017e565b8060009080519060200190620000549291906200005c565b5050620002f4565b8280546200006a9062000260565b90600052602060002090601f0160209004810192826200008e5760008555620000da565b82601f10620000a957805160ff1916838001178555620000da565b82800160010185558215620000da579182015b82811115620000d9578251825591602001919060010190620000bc565b5b509050620000e99190620000ed565b5090565b5b8082111562000108576000816000905550600101620000ee565b5090565b6000620001236200011d84620001f7565b620001c3565b9050828152602081018484840111156200013c57600080fd5b620001498482856200022a565b509392505050565b600082601f8301126200016357600080fd5b8151620001758482602086016200010c565b91505092915050565b6000602082840312156200019157600080fd5b600082015167ffffffffffffffff811115620001ac57600080fd5b620001ba8482850162000151565b91505092915050565b6000604051905081810181811067ffffffffffffffff82111715620001ed57620001ec620002c5565b5b8060405250919050565b600067ffffffffffffffff821115620002155762000214620002c5565b5b601f19601f8301169050602081019050919050565b60005b838110156200024a5780820151818401526020810190506200022d565b838111156200025a576000848401525b50505050565b600060028204905060018216806200027957607f821691505b6020821081141562000290576200028f62000296565b5b50919050565b7f4e487b7100000000000000000000000000000000000000000000000000000000600052602260045260246000fd5b7f4e487b7100000000000000000000000000000000000000000000000000000000600052604160045260246000fd5b61115680620003046000396000f3fe608060405234801561001057600080fd5b506004361061004c5760003560e01c806306fdde0314610051578063310bf5831461006f578063489fcfd11461009f578063a01dc41f146100bd575b600080fd5b6100596100f5565b6040516100669190610d0c565b60405180910390f35b610089600480360381019061008491906109d0565b610183565b6040516100969190610dee565b60405180910390f35b6100a7610881565b6040516100b49190610dee565b60405180910390f35b6100d760048036038101906100d29190610a47565b610887565b6040516100ec99989796959493929190610e96565b60405180910390f35b6000805461010290611008565b80601f016020809104026020016040519081016040528092919081815260200182805461012e90611008565b801561017b5780601f106101505761010080835404028352916020019161017b565b820191906000526020600020905b81548152906001019060200180831161015e57829003601f168201915b505050505081565b600061018e86610955565b6101cd576040517f08c379a00000000000000000000000000000000000000000000000000000000081526004016101c490610d4e565b60405180910390fd5b6101d685610955565b610215576040517f08c379a000000000000000000000000000000000000000000000000000000000815260040161020c90610d2e565b60405180910390fd5b600086905042831161025c576040517f08c379a000000000000000000000000000000000000000000000000000000000815260040161025390610dce565b60405180910390fd5b6000841161029f576040517f08c379a000000000000000000000000000000000000000000000000000000000815260040161029690610d6e565b60405180910390fd5b3373ffffffffffffffffffffffffffffffffffffffff168173ffffffffffffffffffffffffffffffffffffffff16636352211e876040518263ffffffff1660e01b81526004016102ef9190610dee565b60206040518083038186803b15801561030757600080fd5b505afa15801561031b573d6000803e3d6000fd5b505050506040513d601f19601f8201168201806040525081019061033f91906109a7565b73ffffffffffffffffffffffffffffffffffffffff1614610395576040517f08c379a000000000000000000000000000000000000000000000000000000000815260040161038c90610d8e565b60405180910390fd5b3073ffffffffffffffffffffffffffffffffffffffff168173ffffffffffffffffffffffffffffffffffffffff1663081812fc876040518263ffffffff1660e01b81526004016103e59190610dee565b60206040518083038186803b1580156103fd57600080fd5b505afa158015610411573d6000803e3d6000fd5b505050506040513d601f19601f8201168201806040525081019061043591906109a7565b73ffffffffffffffffffffffffffffffffffffffff161461048b576040517f08c379a000000000000000000000000000000000000000000000000000000000815260040161048290610dae565b60405180910390fd5b6001600081548092919061049e9061103a565b919050555060008060405180610120016040528060015481526020018a73ffffffffffffffffffffffffffffffffffffffff1681526020018973ffffffffffffffffffffffffffffffffffffffff1681526020018881526020013373ffffffffffffffffffffffffffffffffffffffff1681526020018373ffffffffffffffffffffffffffffffffffffffff1681526020018781526020018681526020016000815250905060028190806001815401808255809150506001900390600052602060002090600902016000909190919091506000820151816000015560208201518160010160006101000a81548173ffffffffffffffffffffffffffffffffffffffff021916908373ffffffffffffffffffffffffffffffffffffffff16021790555060408201518160020160006101000a81548173ffffffffffffffffffffffffffffffffffffffff021916908373ffffffffffffffffffffffffffffffffffffffff1602179055506060820151816003015560808201518160040160006101000a81548173ffffffffffffffffffffffffffffffffffffffff021916908373ffffffffffffffffffffffffffffffffffffffff16021790555060a08201518160050160006101000a81548173ffffffffffffffffffffffffffffffffffffffff021916908373ffffffffffffffffffffffffffffffffffffffff16021790555060c0820151816006015560e082015181600701556101008201518160080155505080600360008981526020019081526020016000206000820151816000015560208201518160010160006101000a81548173ffffffffffffffffffffffffffffffffffffffff021916908373ffffffffffffffffffffffffffffffffffffffff16021790555060408201518160020160006101000a81548173ffffffffffffffffffffffffffffffffffffffff021916908373ffffffffffffffffffffffffffffffffffffffff1602179055506060820151816003015560808201518160040160006101000a81548173ffffffffffffffffffffffffffffffffffffffff021916908373ffffffffffffffffffffffffffffffffffffffff16021790555060a08201518160050160006101000a81548173ffffffffffffffffffffffffffffffffffffffff021916908373ffffffffffffffffffffffffffffffffffffffff16021790555060c0820151816006015560e0820151816007015561010082015181600801559050507f2fe15e5d20eaeaefdae63cab840dcb1ae80e7eaf6c60000aaaba96a6dc4ce8746001548a8a8a33878c8c600060405161086899989796959493929190610e09565b60405180910390a1600154935050505095945050505050565b60015481565b60036020528060005260406000206000915090508060000154908060010160009054906101000a900473ffffffffffffffffffffffffffffffffffffffff16908060020160009054906101000a900473ffffffffffffffffffffffffffffffffffffffff16908060030154908060040160009054906101000a900473ffffffffffffffffffffffffffffffffffffffff16908060050160009054906101000a900473ffffffffffffffffffffffffffffffffffffffff16908060060154908060070154908060080154905089565b600080823b905060008111915050919050565b600081359050610977816110f2565b92915050565b60008151905061098c816110f2565b92915050565b6000813590506109a181611109565b92915050565b6000602082840312156109b957600080fd5b60006109c78482850161097d565b91505092915050565b600080600080600060a086880312156109e857600080fd5b60006109f688828901610968565b9550506020610a0788828901610968565b9450506040610a1888828901610992565b9350506060610a2988828901610992565b9250506080610a3a88828901610992565b9150509295509295909350565b600060208284031215610a5957600080fd5b6000610a6784828501610992565b91505092915050565b610a7981610f8d565b82525050565b610a8881610f51565b82525050565b610a9781610f3f565b82525050565b610aa681610f9f565b82525050565b6000610ab782610f23565b610ac18185610f2e565b9350610ad1818560208601610fd5565b610ada816110e1565b840191505092915050565b6000610af2602683610f2e565b91507f496e76616c6964205061796d656e7420546f6b656e20636f6e7472616374206160008301527f64647265737300000000000000000000000000000000000000000000000000006020830152604082019050919050565b6000610b58602783610f2e565b91507f496e76616c6964204e465420436f6c6c656374696f6e20636f6e74726163742060008301527f61646472657373000000000000000000000000000000000000000000000000006020830152604082019050919050565b6000610bbe601983610f2e565b91507f496e76616c696420696e697469616c20626964207072696365000000000000006000830152602082019050919050565b6000610bfe602283610f2e565b91507f43616c6c6572206973206e6f7420746865206f776e6572206f6620746865204e60008301527f46540000000000000000000000000000000000000000000000000000000000006020830152604082019050919050565b6000610c64602783610f2e565b91507f52657175697265204e4654206f776e657273686970207472616e73666572206160008301527f7070726f76616c000000000000000000000000000000000000000000000000006020830152604082019050919050565b6000610cca601c83610f2e565b91507f496e76616c696420656e64206461746520666f722061756374696f6e000000006000830152602082019050919050565b610d0681610f83565b82525050565b60006020820190508181036000830152610d268184610aac565b905092915050565b60006020820190508181036000830152610d4781610ae5565b9050919050565b60006020820190508181036000830152610d6781610b4b565b9050919050565b60006020820190508181036000830152610d8781610bb1565b9050919050565b60006020820190508181036000830152610da781610bf1565b9050919050565b60006020820190508181036000830152610dc781610c57565b9050919050565b60006020820190508181036000830152610de781610cbd565b9050919050565b6000602082019050610e036000830184610cfd565b92915050565b600061012082019050610e1f600083018c610cfd565b610e2c602083018b610a8e565b610e39604083018a610a8e565b610e466060830189610cfd565b610e536080830188610a8e565b610e6060a0830187610a70565b610e6d60c0830186610cfd565b610e7a60e0830185610cfd565b610e88610100830184610a9d565b9a9950505050505050505050565b600061012082019050610eac600083018c610cfd565b610eb9602083018b610a8e565b610ec6604083018a610a8e565b610ed36060830189610cfd565b610ee06080830188610a8e565b610eed60a0830187610a7f565b610efa60c0830186610cfd565b610f0760e0830185610cfd565b610f15610100830184610cfd565b9a9950505050505050505050565b600081519050919050565b600082825260208201905092915050565b6000610f4a82610f63565b9050919050565b6000610f5c82610f63565b9050919050565b600073ffffffffffffffffffffffffffffffffffffffff82169050919050565b6000819050919050565b6000610f9882610fb1565b9050919050565b6000610faa82610f83565b9050919050565b6000610fbc82610fc3565b9050919050565b6000610fce82610f63565b9050919050565b60005b83811015610ff3578082015181840152602081019050610fd8565b83811115611002576000848401525b50505050565b6000600282049050600182168061102057607f821691505b60208210811415611034576110336110b2565b5b50919050565b600061104582610f83565b91507fffffffffffffffffffffffffffffffffffffffffffffffffffffffffffffffff82141561107857611077611083565b5b600182019050919050565b7f4e487b7100000000000000000000000000000000000000000000000000000000600052601160045260246000fd5b7f4e487b7100000000000000000000000000000000000000000000000000000000600052602260045260246000fd5b6000601f19601f8301169050919050565b6110fb81610f3f565b811461110657600080fd5b50565b61111281610f83565b811461111d57600080fd5b5056fea2646970667358221220f30c00156788c4265d1c432d0e96397e1eb6458fa124a37843b6f6ff80bea36764736f6c63430008000033",
  "linkReferences": {},
  "deployedLinkReferences": {}
}