{
  "_format": "hh-sol-artifact-1",
  "contractName": "NFTAuction",
  "sourceName": "contracts/NFTAuction.sol",
  "abi": [
    {
      "inputs": [
        {
          "internalType": "address",
          "name": "_paymentTokenAddress",
          "type": "address"
        }
      ],
      "stateMutability": "nonpayable",
      "type": "constructor"
    },
    {
      "anonymous": false,
      "inputs": [
        {
          "indexed": true,
          "internalType": "address",
          "name": "owner",
          "type": "address"
        },
        {
          "indexed": true,
          "internalType": "address",
          "name": "approved",
          "type": "address"
        },
        {
          "indexed": true,
          "internalType": "uint256",
          "name": "tokenId",
          "type": "uint256"
        }
      ],
      "name": "Approval",
      "type": "event"
    },
    {
      "anonymous": false,
      "inputs": [
        {
          "indexed": true,
          "internalType": "address",
          "name": "owner",
          "type": "address"
        },
        {
          "indexed": true,
          "internalType": "address",
          "name": "operator",
          "type": "address"
        },
        {
          "indexed": false,
          "internalType": "bool",
          "name": "approved",
          "type": "bool"
        }
      ],
      "name": "ApprovalForAll",
      "type": "event"
    },
    {
      "anonymous": false,
      "inputs": [
        {
          "indexed": true,
          "internalType": "address",
          "name": "from",
          "type": "address"
        },
        {
          "indexed": true,
          "internalType": "address",
          "name": "to",
          "type": "address"
        },
        {
          "indexed": true,
          "internalType": "uint256",
          "name": "tokenId",
          "type": "uint256"
        }
      ],
      "name": "Transfer",
      "type": "event"
    },
    {
      "inputs": [
        {
          "internalType": "uint256",
          "name": "",
          "type": "uint256"
        }
      ],
      "name": "allNFTs",
      "outputs": [
        {
          "internalType": "uint256",
          "name": "nftId",
          "type": "uint256"
        },
        {
          "internalType": "string",
          "name": "nftName",
          "type": "string"
        },
        {
          "internalType": "string",
          "name": "nftURI",
          "type": "string"
        },
        {
          "internalType": "address payable",
          "name": "mintedBy",
          "type": "address"
        },
        {
          "internalType": "address payable",
          "name": "currentOwner",
          "type": "address"
        },
        {
          "internalType": "address payable",
          "name": "currentBidOwner",
          "type": "address"
        },
        {
          "internalType": "uint256",
          "name": "bidPrice",
          "type": "uint256"
        },
        {
          "internalType": "uint256",
          "name": "endAuction",
          "type": "uint256"
        },
        {
          "internalType": "uint256",
          "name": "bidCount",
          "type": "uint256"
        }
      ],
      "stateMutability": "view",
      "type": "function"
    },
    {
      "inputs": [
        {
          "internalType": "address",
          "name": "to",
          "type": "address"
        },
        {
          "internalType": "uint256",
          "name": "tokenId",
          "type": "uint256"
        }
      ],
      "name": "approve",
      "outputs": [],
      "stateMutability": "nonpayable",
      "type": "function"
    },
    {
      "inputs": [
        {
          "internalType": "address",
          "name": "owner",
          "type": "address"
        }
      ],
      "name": "balanceOf",
      "outputs": [
        {
          "internalType": "uint256",
          "name": "",
          "type": "uint256"
        }
      ],
      "stateMutability": "view",
      "type": "function"
    },
    {
      "inputs": [
        {
          "internalType": "uint256",
          "name": "tokenId",
          "type": "uint256"
        }
      ],
      "name": "getApproved",
      "outputs": [
        {
          "internalType": "address",
          "name": "",
          "type": "address"
        }
      ],
      "stateMutability": "view",
      "type": "function"
    },
    {
      "inputs": [
        {
          "internalType": "address",
          "name": "owner",
          "type": "address"
        },
        {
          "internalType": "address",
          "name": "operator",
          "type": "address"
        }
      ],
      "name": "isApprovedForAll",
      "outputs": [
        {
          "internalType": "bool",
          "name": "",
          "type": "bool"
        }
      ],
      "stateMutability": "view",
      "type": "function"
    },
    {
      "inputs": [],
      "name": "name",
      "outputs": [
        {
          "internalType": "string",
          "name": "",
          "type": "string"
        }
      ],
      "stateMutability": "view",
      "type": "function"
    },
    {
      "inputs": [],
      "name": "nftSequenceId",
      "outputs": [
        {
          "internalType": "uint256",
          "name": "",
          "type": "uint256"
        }
      ],
      "stateMutability": "view",
      "type": "function"
    },
    {
      "inputs": [
        {
          "internalType": "uint256",
          "name": "tokenId",
          "type": "uint256"
        }
      ],
      "name": "ownerOf",
      "outputs": [
        {
          "internalType": "address",
          "name": "",
          "type": "address"
        }
      ],
      "stateMutability": "view",
      "type": "function"
    },
    {
      "inputs": [],
      "name": "paymentTokenAddress",
      "outputs": [
        {
          "internalType": "address",
          "name": "",
          "type": "address"
        }
      ],
      "stateMutability": "view",
      "type": "function"
    },
    {
      "inputs": [
        {
          "internalType": "address",
          "name": "from",
          "type": "address"
        },
        {
          "internalType": "address",
          "name": "to",
          "type": "address"
        },
        {
          "internalType": "uint256",
          "name": "tokenId",
          "type": "uint256"
        }
      ],
      "name": "safeTransferFrom",
      "outputs": [],
      "stateMutability": "nonpayable",
      "type": "function"
    },
    {
      "inputs": [
        {
          "internalType": "address",
          "name": "from",
          "type": "address"
        },
        {
          "internalType": "address",
          "name": "to",
          "type": "address"
        },
        {
          "internalType": "uint256",
          "name": "tokenId",
          "type": "uint256"
        },
        {
          "internalType": "bytes",
          "name": "_data",
          "type": "bytes"
        }
      ],
      "name": "safeTransferFrom",
      "outputs": [],
      "stateMutability": "nonpayable",
      "type": "function"
    },
    {
      "inputs": [
        {
          "internalType": "address",
          "name": "operator",
          "type": "address"
        },
        {
          "internalType": "bool",
          "name": "approved",
          "type": "bool"
        }
      ],
      "name": "setApprovalForAll",
      "outputs": [],
      "stateMutability": "nonpayable",
      "type": "function"
    },
    {
      "inputs": [
        {
          "internalType": "bytes4",
          "name": "interfaceId",
          "type": "bytes4"
        }
      ],
      "name": "supportsInterface",
      "outputs": [
        {
          "internalType": "bool",
          "name": "",
          "type": "bool"
        }
      ],
      "stateMutability": "view",
      "type": "function"
    },
    {
      "inputs": [],
      "name": "symbol",
      "outputs": [
        {
          "internalType": "string",
          "name": "",
          "type": "string"
        }
      ],
      "stateMutability": "view",
      "type": "function"
    },
    {
      "inputs": [
        {
          "internalType": "uint256",
          "name": "tokenId",
          "type": "uint256"
        }
      ],
      "name": "tokenURI",
      "outputs": [
        {
          "internalType": "string",
          "name": "",
          "type": "string"
        }
      ],
      "stateMutability": "view",
      "type": "function"
    },
    {
      "inputs": [
        {
          "internalType": "address",
          "name": "from",
          "type": "address"
        },
        {
          "internalType": "address",
          "name": "to",
          "type": "address"
        },
        {
          "internalType": "uint256",
          "name": "tokenId",
          "type": "uint256"
        }
      ],
      "name": "transferFrom",
      "outputs": [],
      "stateMutability": "nonpayable",
      "type": "function"
    }
  ],
  "bytecode": "0x608060405260006007553480156200001657600080fd5b50604051620029143803806200291483398181016040528101906200003c9190620001eb565b6040518060400160405280600f81526020017f4e4654204d61726b6574706c61636500000000000000000000000000000000008152506040518060400160405280600681526020017f4e46544d4b5400000000000000000000000000000000000000000000000000008152508160009080519060200190620000c092919062000124565b508060019080519060200190620000d992919062000124565b50505080600860006101000a81548173ffffffffffffffffffffffffffffffffffffffff021916908373ffffffffffffffffffffffffffffffffffffffff16021790555050620002ca565b82805462000132906200024b565b90600052602060002090601f016020900481019282620001565760008555620001a2565b82601f106200017157805160ff1916838001178555620001a2565b82800160010185558215620001a2579182015b82811115620001a157825182559160200191906001019062000184565b5b509050620001b19190620001b5565b5090565b5b80821115620001d0576000816000905550600101620001b6565b5090565b600081519050620001e581620002b0565b92915050565b600060208284031215620001fe57600080fd5b60006200020e84828501620001d4565b91505092915050565b600062000224826200022b565b9050919050565b600073ffffffffffffffffffffffffffffffffffffffff82169050919050565b600060028204905060018216806200026457607f821691505b602082108114156200027b576200027a62000281565b5b50919050565b7f4e487b7100000000000000000000000000000000000000000000000000000000600052602260045260246000fd5b620002bb8162000217565b8114620002c757600080fd5b50565b61263a80620002da6000396000f3fe608060405234801561001057600080fd5b50600436106101005760003560e01c806395d89b4111610097578063b88d4fde11610066578063b88d4fde146102ad578063bf162d67146102c9578063c87b56dd14610301578063e985e9c51461033157610100565b806395d89b41146102375780639633100914610255578063a22cb46514610273578063afb18fe71461028f57610100565b806323b872dd116100d357806323b872dd1461019f57806342842e0e146101bb5780636352211e146101d757806370a082311461020757610100565b806301ffc9a71461010557806306fdde0314610135578063081812fc14610153578063095ea7b314610183575b600080fd5b61011f600480360381019061011a919061190e565b610361565b60405161012c9190611f95565b60405180910390f35b61013d610443565b60405161014a9190611fb0565b60405180910390f35b61016d60048036038101906101689190611960565b6104d5565b60405161017a9190611f2e565b60405180910390f35b61019d600480360381019061019891906118d2565b61055a565b005b6101b960048036038101906101b491906117cc565b610672565b005b6101d560048036038101906101d091906117cc565b6106d2565b005b6101f160048036038101906101ec9190611960565b6106f2565b6040516101fe9190611f2e565b60405180910390f35b610221600480360381019061021c9190611767565b6107a4565b60405161022e9190612152565b60405180910390f35b61023f61085c565b60405161024c9190611fb0565b60405180910390f35b61025d6108ee565b60405161026a9190612152565b60405180910390f35b61028d60048036038101906102889190611896565b6108f4565b005b610297610a75565b6040516102a49190611f2e565b60405180910390f35b6102c760048036038101906102c2919061181b565b610a9b565b005b6102e360048036038101906102de9190611960565b610afd565b6040516102f89998979695949392919061216d565b60405180910390f35b61031b60048036038101906103169190611960565b610cbb565b6040516103289190611fb0565b60405180910390f35b61034b60048036038101906103469190611790565b610d62565b6040516103589190611f95565b60405180910390f35b60007f80ac58cd000000000000000000000000000000000000000000000000000000007bffffffffffffffffffffffffffffffffffffffffffffffffffffffff1916827bffffffffffffffffffffffffffffffffffffffffffffffffffffffff1916148061042c57507f5b5e139f000000000000000000000000000000000000000000000000000000007bffffffffffffffffffffffffffffffffffffffffffffffffffffffff1916827bffffffffffffffffffffffffffffffffffffffffffffffffffffffff1916145b8061043c575061043b82610df6565b5b9050919050565b6060600080546104529061242f565b80601f016020809104026020016040519081016040528092919081815260200182805461047e9061242f565b80156104cb5780601f106104a0576101008083540402835291602001916104cb565b820191906000526020600020905b8154815290600101906020018083116104ae57829003601f168201915b5050505050905090565b60006104e082610e60565b61051f576040517f08c379a0000000000000000000000000000000000000000000000000000000008152600401610516906120b2565b60405180910390fd5b6004600083815260200190815260200160002060009054906101000a900473ffffffffffffffffffffffffffffffffffffffff169050919050565b6000610565826106f2565b90508073ffffffffffffffffffffffffffffffffffffffff168373ffffffffffffffffffffffffffffffffffffffff1614156105d6576040517f08c379a00000000000000000000000000000000000000000000000000000000081526004016105cd90612112565b60405180910390fd5b8073ffffffffffffffffffffffffffffffffffffffff166105f5610ecc565b73ffffffffffffffffffffffffffffffffffffffff16148061062457506106238161061e610ecc565b610d62565b5b610663576040517f08c379a000000000000000000000000000000000000000000000000000000000815260040161065a90612052565b60405180910390fd5b61066d8383610ed4565b505050565b61068361067d610ecc565b82610f8d565b6106c2576040517f08c379a00000000000000000000000000000000000000000000000000000000081526004016106b990612132565b60405180910390fd5b6106cd83838361106b565b505050565b6106ed83838360405180602001604052806000815250610a9b565b505050565b6000806002600084815260200190815260200160002060009054906101000a900473ffffffffffffffffffffffffffffffffffffffff169050600073ffffffffffffffffffffffffffffffffffffffff168173ffffffffffffffffffffffffffffffffffffffff16141561079b576040517f08c379a000000000000000000000000000000000000000000000000000000000815260040161079290612092565b60405180910390fd5b80915050919050565b60008073ffffffffffffffffffffffffffffffffffffffff168273ffffffffffffffffffffffffffffffffffffffff161415610815576040517f08c379a000000000000000000000000000000000000000000000000000000000815260040161080c90612072565b60405180910390fd5b600360008373ffffffffffffffffffffffffffffffffffffffff1673ffffffffffffffffffffffffffffffffffffffff168152602001908152602001600020549050919050565b60606001805461086b9061242f565b80601f01602080910402602001604051908101604052809291908181526020018280546108979061242f565b80156108e45780601f106108b9576101008083540402835291602001916108e4565b820191906000526020600020905b8154815290600101906020018083116108c757829003601f168201915b5050505050905090565b60075481565b6108fc610ecc565b73ffffffffffffffffffffffffffffffffffffffff168273ffffffffffffffffffffffffffffffffffffffff16141561096a576040517f08c379a000000000000000000000000000000000000000000000000000000000815260040161096190612012565b60405180910390fd5b8060056000610977610ecc565b73ffffffffffffffffffffffffffffffffffffffff1673ffffffffffffffffffffffffffffffffffffffff16815260200190815260200160002060008473ffffffffffffffffffffffffffffffffffffffff1673ffffffffffffffffffffffffffffffffffffffff16815260200190815260200160002060006101000a81548160ff0219169083151502179055508173ffffffffffffffffffffffffffffffffffffffff16610a24610ecc565b73ffffffffffffffffffffffffffffffffffffffff167f17307eab39ab6107e8899845ad3d59bd9653f200f220920489ca2b5937696c3183604051610a699190611f95565b60405180910390a35050565b600860009054906101000a900473ffffffffffffffffffffffffffffffffffffffff1681565b610aac610aa6610ecc565b83610f8d565b610aeb576040517f08c379a0000000000000000000000000000000000000000000000000000000008152600401610ae290612132565b60405180910390fd5b610af7848484846112c7565b50505050565b6006602052806000526040600020600091509050806000015490806001018054610b269061242f565b80601f0160208091040260200160405190810160405280929190818152602001828054610b529061242f565b8015610b9f5780601f10610b7457610100808354040283529160200191610b9f565b820191906000526020600020905b815481529060010190602001808311610b8257829003601f168201915b505050505090806002018054610bb49061242f565b80601f0160208091040260200160405190810160405280929190818152602001828054610be09061242f565b8015610c2d5780601f10610c0257610100808354040283529160200191610c2d565b820191906000526020600020905b815481529060010190602001808311610c1057829003601f168201915b5050505050908060030160009054906101000a900473ffffffffffffffffffffffffffffffffffffffff16908060040160009054906101000a900473ffffffffffffffffffffffffffffffffffffffff16908060050160009054906101000a900473ffffffffffffffffffffffffffffffffffffffff16908060060154908060070154908060080154905089565b6060610cc682610e60565b610d05576040517f08c379a0000000000000000000000000000000000000000000000000000000008152600401610cfc906120f2565b60405180910390fd5b6000610d0f611323565b90506000815111610d2f5760405180602001604052806000815250610d5a565b80610d398461133a565b604051602001610d4a929190611f0a565b6040516020818303038152906040525b915050919050565b6000600560008473ffffffffffffffffffffffffffffffffffffffff1673ffffffffffffffffffffffffffffffffffffffff16815260200190815260200160002060008373ffffffffffffffffffffffffffffffffffffffff1673ffffffffffffffffffffffffffffffffffffffff16815260200190815260200160002060009054906101000a900460ff16905092915050565b60007f01ffc9a7000000000000000000000000000000000000000000000000000000007bffffffffffffffffffffffffffffffffffffffffffffffffffffffff1916827bffffffffffffffffffffffffffffffffffffffffffffffffffffffff1916149050919050565b60008073ffffffffffffffffffffffffffffffffffffffff166002600084815260200190815260200160002060009054906101000a900473ffffffffffffffffffffffffffffffffffffffff1673ffffffffffffffffffffffffffffffffffffffff1614159050919050565b600033905090565b816004600083815260200190815260200160002060006101000a81548173ffffffffffffffffffffffffffffffffffffffff021916908373ffffffffffffffffffffffffffffffffffffffff160217905550808273ffffffffffffffffffffffffffffffffffffffff16610f47836106f2565b73ffffffffffffffffffffffffffffffffffffffff167f8c5be1e5ebec7d5bd14f71427d1e84f3dd0314c0f7b2291e5b200ac8c7c3b92560405160405180910390a45050565b6000610f9882610e60565b610fd7576040517f08c379a0000000000000000000000000000000000000000000000000000000008152600401610fce90612032565b60405180910390fd5b6000610fe2836106f2565b90508073ffffffffffffffffffffffffffffffffffffffff168473ffffffffffffffffffffffffffffffffffffffff16148061105157508373ffffffffffffffffffffffffffffffffffffffff16611039846104d5565b73ffffffffffffffffffffffffffffffffffffffff16145b8061106257506110618185610d62565b5b91505092915050565b8273ffffffffffffffffffffffffffffffffffffffff1661108b826106f2565b73ffffffffffffffffffffffffffffffffffffffff16146110e1576040517f08c379a00000000000000000000000000000000000000000000000000000000081526004016110d8906120d2565b60405180910390fd5b600073ffffffffffffffffffffffffffffffffffffffff168273ffffffffffffffffffffffffffffffffffffffff161415611151576040517f08c379a000000000000000000000000000000000000000000000000000000000815260040161114890611ff2565b60405180910390fd5b61115c8383836114e7565b611167600082610ed4565b6001600360008573ffffffffffffffffffffffffffffffffffffffff1673ffffffffffffffffffffffffffffffffffffffff16815260200190815260200160002060008282546111b79190612333565b925050819055506001600360008473ffffffffffffffffffffffffffffffffffffffff1673ffffffffffffffffffffffffffffffffffffffff168152602001908152602001600020600082825461120e91906122ac565b92505081905550816002600083815260200190815260200160002060006101000a81548173ffffffffffffffffffffffffffffffffffffffff021916908373ffffffffffffffffffffffffffffffffffffffff160217905550808273ffffffffffffffffffffffffffffffffffffffff168473ffffffffffffffffffffffffffffffffffffffff167fddf252ad1be2c89b69c2b068fc378daa952ba7f163c4a11628f55a4df523b3ef60405160405180910390a4505050565b6112d284848461106b565b6112de848484846114ec565b61131d576040517f08c379a000000000000000000000000000000000000000000000000000000000815260040161131490611fd2565b60405180910390fd5b50505050565b606060405180602001604052806000815250905090565b60606000821415611382576040518060400160405280600181526020017f300000000000000000000000000000000000000000000000000000000000000081525090506114e2565b600082905060005b600082146113b457808061139d90612461565b915050600a826113ad9190612302565b915061138a565b60008167ffffffffffffffff8111156113f6577f4e487b7100000000000000000000000000000000000000000000000000000000600052604160045260246000fd5b6040519080825280601f01601f1916602001820160405280156114285781602001600182028036833780820191505090505b5090505b600085146114db576001826114419190612333565b9150600a8561145091906124aa565b603061145c91906122ac565b60f81b818381518110611498577f4e487b7100000000000000000000000000000000000000000000000000000000600052603260045260246000fd5b60200101907effffffffffffffffffffffffffffffffffffffffffffffffffffffffffffff1916908160001a905350600a856114d49190612302565b945061142c565b8093505050505b919050565b505050565b600061150d8473ffffffffffffffffffffffffffffffffffffffff16611683565b15611676578373ffffffffffffffffffffffffffffffffffffffff1663150b7a02611536610ecc565b8786866040518563ffffffff1660e01b81526004016115589493929190611f49565b602060405180830381600087803b15801561157257600080fd5b505af19250505080156115a357506040513d601f19601f820116820180604052508101906115a09190611937565b60015b611626573d80600081146115d3576040519150601f19603f3d011682016040523d82523d6000602084013e6115d8565b606091505b5060008151141561161e576040517f08c379a000000000000000000000000000000000000000000000000000000000815260040161161590611fd2565b60405180910390fd5b805181602001fd5b63150b7a0260e01b7bffffffffffffffffffffffffffffffffffffffffffffffffffffffff1916817bffffffffffffffffffffffffffffffffffffffffffffffffffffffff19161491505061167b565b600190505b949350505050565b600080823b905060008111915050919050565b60006116a96116a484612239565b612208565b9050828152602081018484840111156116c157600080fd5b6116cc8482856123ed565b509392505050565b6000813590506116e3816125a8565b92915050565b6000813590506116f8816125bf565b92915050565b60008135905061170d816125d6565b92915050565b600081519050611722816125d6565b92915050565b600082601f83011261173957600080fd5b8135611749848260208601611696565b91505092915050565b600081359050611761816125ed565b92915050565b60006020828403121561177957600080fd5b6000611787848285016116d4565b91505092915050565b600080604083850312156117a357600080fd5b60006117b1858286016116d4565b92505060206117c2858286016116d4565b9150509250929050565b6000806000606084860312156117e157600080fd5b60006117ef868287016116d4565b9350506020611800868287016116d4565b925050604061181186828701611752565b9150509250925092565b6000806000806080858703121561183157600080fd5b600061183f878288016116d4565b9450506020611850878288016116d4565b935050604061186187828801611752565b925050606085013567ffffffffffffffff81111561187e57600080fd5b61188a87828801611728565b91505092959194509250565b600080604083850312156118a957600080fd5b60006118b7858286016116d4565b92505060206118c8858286016116e9565b9150509250929050565b600080604083850312156118e557600080fd5b60006118f3858286016116d4565b925050602061190485828601611752565b9150509250929050565b60006020828403121561192057600080fd5b600061192e848285016116fe565b91505092915050565b60006020828403121561194957600080fd5b600061195784828501611713565b91505092915050565b60006020828403121561197257600080fd5b600061198084828501611752565b91505092915050565b61199281612379565b82525050565b6119a181612367565b82525050565b6119b08161238b565b82525050565b60006119c182612269565b6119cb818561227f565b93506119db8185602086016123fc565b6119e481612597565b840191505092915050565b60006119fa82612274565b611a048185612290565b9350611a148185602086016123fc565b611a1d81612597565b840191505092915050565b6000611a3382612274565b611a3d81856122a1565b9350611a4d8185602086016123fc565b80840191505092915050565b6000611a66603283612290565b91507f4552433732313a207472616e7366657220746f206e6f6e20455243373231526560008301527f63656976657220696d706c656d656e74657200000000000000000000000000006020830152604082019050919050565b6000611acc602483612290565b91507f4552433732313a207472616e7366657220746f20746865207a65726f2061646460008301527f72657373000000000000000000000000000000000000000000000000000000006020830152604082019050919050565b6000611b32601983612290565b91507f4552433732313a20617070726f766520746f2063616c6c6572000000000000006000830152602082019050919050565b6000611b72602c83612290565b91507f4552433732313a206f70657261746f7220717565727920666f72206e6f6e657860008301527f697374656e7420746f6b656e00000000000000000000000000000000000000006020830152604082019050919050565b6000611bd8603883612290565b91507f4552433732313a20617070726f76652063616c6c6572206973206e6f74206f7760008301527f6e6572206e6f7220617070726f76656420666f7220616c6c00000000000000006020830152604082019050919050565b6000611c3e602a83612290565b91507f4552433732313a2062616c616e636520717565727920666f7220746865207a6560008301527f726f2061646472657373000000000000000000000000000000000000000000006020830152604082019050919050565b6000611ca4602983612290565b91507f4552433732313a206f776e657220717565727920666f72206e6f6e657869737460008301527f656e7420746f6b656e00000000000000000000000000000000000000000000006020830152604082019050919050565b6000611d0a602c83612290565b91507f4552433732313a20617070726f76656420717565727920666f72206e6f6e657860008301527f697374656e7420746f6b656e00000000000000000000000000000000000000006020830152604082019050919050565b6000611d70602983612290565b91507f4552433732313a207472616e73666572206f6620746f6b656e2074686174206960008301527f73206e6f74206f776e00000000000000000000000000000000000000000000006020830152604082019050919050565b6000611dd6602f83612290565b91507f4552433732314d657461646174613a2055524920717565727920666f72206e6f60008301527f6e6578697374656e7420746f6b656e00000000000000000000000000000000006020830152604082019050919050565b6000611e3c602183612290565b91507f4552433732313a20617070726f76616c20746f2063757272656e74206f776e6560008301527f72000000000000000000000000000000000000000000000000000000000000006020830152604082019050919050565b6000611ea2603183612290565b91507f4552433732313a207472616e736665722063616c6c6572206973206e6f74206f60008301527f776e6572206e6f7220617070726f7665640000000000000000000000000000006020830152604082019050919050565b611f04816123e3565b82525050565b6000611f168285611a28565b9150611f228284611a28565b91508190509392505050565b6000602082019050611f436000830184611998565b92915050565b6000608082019050611f5e6000830187611998565b611f6b6020830186611998565b611f786040830185611efb565b8181036060830152611f8a81846119b6565b905095945050505050565b6000602082019050611faa60008301846119a7565b92915050565b60006020820190508181036000830152611fca81846119ef565b905092915050565b60006020820190508181036000830152611feb81611a59565b9050919050565b6000602082019050818103600083015261200b81611abf565b9050919050565b6000602082019050818103600083015261202b81611b25565b9050919050565b6000602082019050818103600083015261204b81611b65565b9050919050565b6000602082019050818103600083015261206b81611bcb565b9050919050565b6000602082019050818103600083015261208b81611c31565b9050919050565b600060208201905081810360008301526120ab81611c97565b9050919050565b600060208201905081810360008301526120cb81611cfd565b9050919050565b600060208201905081810360008301526120eb81611d63565b9050919050565b6000602082019050818103600083015261210b81611dc9565b9050919050565b6000602082019050818103600083015261212b81611e2f565b9050919050565b6000602082019050818103600083015261214b81611e95565b9050919050565b60006020820190506121676000830184611efb565b92915050565b600061012082019050612183600083018c611efb565b8181036020830152612195818b6119ef565b905081810360408301526121a9818a6119ef565b90506121b86060830189611989565b6121c56080830188611989565b6121d260a0830187611989565b6121df60c0830186611efb565b6121ec60e0830185611efb565b6121fa610100830184611efb565b9a9950505050505050505050565b6000604051905081810181811067ffffffffffffffff8211171561222f5761222e612568565b5b8060405250919050565b600067ffffffffffffffff82111561225457612253612568565b5b601f19601f8301169050602081019050919050565b600081519050919050565b600081519050919050565b600082825260208201905092915050565b600082825260208201905092915050565b600081905092915050565b60006122b7826123e3565b91506122c2836123e3565b9250827fffffffffffffffffffffffffffffffffffffffffffffffffffffffffffffffff038211156122f7576122f66124db565b5b828201905092915050565b600061230d826123e3565b9150612318836123e3565b9250826123285761232761250a565b5b828204905092915050565b600061233e826123e3565b9150612349836123e3565b92508282101561235c5761235b6124db565b5b828203905092915050565b6000612372826123c3565b9050919050565b6000612384826123c3565b9050919050565b60008115159050919050565b60007fffffffff0000000000000000000000000000000000000000000000000000000082169050919050565b600073ffffffffffffffffffffffffffffffffffffffff82169050919050565b6000819050919050565b82818337600083830152505050565b60005b8381101561241a5780820151818401526020810190506123ff565b83811115612429576000848401525b50505050565b6000600282049050600182168061244757607f821691505b6020821081141561245b5761245a612539565b5b50919050565b600061246c826123e3565b91507fffffffffffffffffffffffffffffffffffffffffffffffffffffffffffffffff82141561249f5761249e6124db565b5b600182019050919050565b60006124b5826123e3565b91506124c0836123e3565b9250826124d0576124cf61250a565b5b828206905092915050565b7f4e487b7100000000000000000000000000000000000000000000000000000000600052601160045260246000fd5b7f4e487b7100000000000000000000000000000000000000000000000000000000600052601260045260246000fd5b7f4e487b7100000000000000000000000000000000000000000000000000000000600052602260045260246000fd5b7f4e487b7100000000000000000000000000000000000000000000000000000000600052604160045260246000fd5b6000601f19601f8301169050919050565b6125b181612367565b81146125bc57600080fd5b50565b6125c88161238b565b81146125d357600080fd5b50565b6125df81612397565b81146125ea57600080fd5b50565b6125f6816123e3565b811461260157600080fd5b5056fea2646970667358221220c72236332c074ffe39422e724fec772fe0c12466d8cf78fdfe0e8636f820315e64736f6c63430008000033",
  "linkReferences": {},
  "deployedLinkReferences": {}
}